:100000000C942A000C943F000C943F000C943F0089
:100010000C943F000C943F000C943F000C943F0064
:100020000C943F000C943F000C943F000C943F0054
:100030000C943F000C943F000C943F000C943F0044
:100040000C943F000C943F000C943F000C943F0034
:100050000C943F0011241FBECFE5D8E0DEBFCDBF1A
:1000600011E0A0E6B0E0E6EEF7E002C005900D92E8
:10007000A830B107D9F70E9464020C94F1030C94E4
:1000800000003E9A3F9A309A319A329A379A0895F0
:1000900097B1907E8F71892B87B9369A349BFECFAA
:1000A000349A84B125B190E0922B0895982F9770DF
:1000B000869586958695813021F130F08230F1F178
:1000C000833009F458C00895613069F44BB321E0DE
:1000D00030E0B90102C0660F771F9A95E2F7CB01B5
:1000E000842B8BBB08954BB321E030E0B90102C0F3
:1000F000660F771F9A95E2F7CB01809584238BBB1F
:100100000895613069F448B321E030E0B90102C0DC
:10011000660F771F9A95E2F7CB01842B88BB089571
:1001200048B321E030E0B90102C0660F771F9A950D
:10013000E2F7CB018095842388BB0895613069F490
:1001400045B321E030E0B90102C0660F771F9A95F0
:10015000E2F7CB01842B85BB089545B321E030E065
:10016000B90102C0660F771F9A95E2F7CB0180951F
:10017000842385BB0895613069F442B321E030E007
:10018000B90102C0660F771F9A95E2F7CB01842B65
:1001900082BB089542B321E030E0B90102C0660F8E
:1001A000771F9A95E2F7CB018095842382BB08954F
:1001B000CF93DF93CDB7DEB7C054D1090FB6F89413
:1001C000DEBF0FBECDBF80E4E0E6F0E0DE011196B9
:1001D00001900D928A95E1F7FE01319680E041E0B1
:1001E00050E0282F2770982F9695969596959130E8
:1001F00009F130F09230C1F1933009F44FC067C07B
:100200009081913059F49AB3BA0102C0660F771FFA
:100210002A95E2F79B01292B2ABB59C03AB3BA01B0
:1002200002C0660F771F2A95E2F7962F90959323C9
:100230009ABB4DC09081913059F497B3BA0102C076
:10024000660F771F2A95E2F79B01292B27BB3FC03A
:1002500037B3BA0102C0660F771F2A95E2F7962FCF
:100260009095932397BB33C09081913059F494B308
:10027000BA0102C0660F771F2A95E2F79B01292B6E
:1002800024BB25C034B3BA0102C0660F771F2A957C
:10029000E2F7962F9095932394BB19C090819130EB
:1002A00059F491B3BA0102C0660F771F2A95E2F79D
:1002B0009B01292B21BB0BC031B3BA0102C0660FD1
:1002C000771F2A95E2F7962F9095932391BB8F5F26
:1002D0003296803209F085CFC05CDF4F0FB6F894BC
:1002E000DEBF0FBECDBFDF91CF910895CF93C82F52
:1002F0008BB38F709C2F907F892B8BBB60E089E044
:100300000E94560061E08BE00E9456008FE891E069
:100310000197F1F700C0000060E08BE00E945600FA
:100320008FE19EE40197F1F700C000008BB3282F06
:100330002F7030E1C39FC0011124822B8BBB60E082
:1003400089E00E94560061E08BE00E9456008FE831
:1003500091E00197F1F700C0000060E08BE00E949F
:1003600056008FE39FE10197F1F700C00000CF91A5
:10037000089560E08AE00E9456002FEF89EF90E038
:10038000215080409040E1F700C0000083E30E94CC
:1003900076018FE193E00197F1F700C0000082E35E
:1003A0000E94760188E20E94760187E00E94760131
:1003B00086E00E94760188E10E9476018CE00E942E
:1003C000760181E00E9476018FE39FE10197F1F7CA
:1003D00000C000000895CF93C82F8BB38F709C2F5F
:1003E000907F892B8BBB61E089E00E94560061E021
:1003F0008BE00E9456008FE891E00197F1F700C072
:10040000000060E08BE00E9456008FE19EE40197BF
:10041000F1F700C000008BB3282F2F7030E1C3022A
:10042000C0011124822B8BBB61E089E00E94560041
:1004300061E08BE00E9456008FE891E00197F1F7B0
:1004400000C0000060E08BE00E9456008FE39FE157
:100450000197F1F700C00000CF9108950F931F930B
:10046000CF93FC018081882359F08F01C0E00E9466
:10047000EB01CF5FF801EC0FF11D80818111F7CF07
:10048000CF911F910F91089581E00E947601089508
:10049000CF93DF93EC01613019F0623051F011C05D
:1004A000842F8F7080680E947601CE010E942E02F8
:1004B00008C0842F8F70806C0E947601CE010E944C
:1004C0002E02DF91CF910895CF93DF93CDB7DEB7A2
:1004D000E2970FB6F894DEBF0FBECDBF0E94D800E2
:1004E00083E590E00E94A9030E9441000E94B901A7
:1004F0000E94440242E061E080EA90E00E944802EB
:1005000042E062E08DEA90E00E9448022FEF89E627
:1005100098E1215080409040E1F700C000000E9427
:10052000B8038136E1F461E080E10E9456002FEFCC
:1005300083EC99E0215080409040E1F700C000003A
:100540000E94440242E061E088EB90E00E94480291
:1005500042E062E08EEB90E00E944802E0CF8236FB
:10056000E1F460E080E10E9456002FEF83EC99E017
:10057000215080409040E1F700C000000E944402FA
:1005800042E061E088EB90E00E94480242E062E0D5
:1005900081EC90E00E944802C2CF8336D1F40E94E1
:1005A0005E032FEF83EC99E0215080409040E1F70B
:1005B00000C000000E94440242E061E085EC90E04F
:1005C0000E94480242E062E08BEC90E00E94480208
:1005D000A6CF8436D1F40E9477032FEF83EC99E005
:1005E000215080409040E1F700C000000E9444028A
:1005F00042E061E085EC90E00E94480242E062E067
:1006000083ED90E00E9448028ACF8536D1F40E94A3
:1006100090032FEF83EC99E0215080409040E1F768
:1006200000C000000E94440242E061E085EC90E0DE
:100630000E94480242E062E08BED90E00E94480296
:100640006ECF863609F06BCF0E94440242E061E033
:1006500080EE90E00E94480242E062E08CEE90E082
:100660000E9448022FEF83ED90E32150804090409C
:10067000E1F700C0000081E00E9448004AE0BE01AE
:100680006F5F7F4F96958795969587950E94BC03DF
:100690000E94440241E061E08AEF90E00E9448023B
:1006A000CE0101960E942E022FEF89E698E121509B
:1006B00080409040E1F700C00000DDCF61E086E1BE
:1006C0000E94560060E087E10E94560061E085E1EB
:1006D0000E94560061E082E10E94560060E083E1E2
:1006E0000E94560060E084E10E945600089560E098
:1006F00086E10E94560061E087E10E94560061E0B9
:1007000085E10E94560061E083E10E94560060E0AE
:1007100082E10E94560060E084E10E945600089544
:1007200060E086E10E94560060E087E10E9456008A
:1007300060E085E10E94560061E084E10E9456007D
:1007400060E082E10E94560060E083E10E94560072
:1007500008958D3419F0833549F008958DB1806581
:100760008DB961E08CE00E94560008956E9A08955C
:10077000779BFECF8FB10895BB274A3031F4992380
:1007800022F4BDE2909581959F4F0C94C803BB273E
:10079000FB015527AA27880F991FAA1FA41710F03D
:1007A000A41B83955051B9F7A05DAA3308F0A95D49
:1007B000A193009779F7B111B1931192CB010C94E9
:1007C000E103DC01FC01672F71917723E1F7329798
:1007D00004C07C916D9370836291AE17BF07C8F31C
:0607E0000895F894FFCF1C
:1007E60001010001010101010101010101010101F4
:1007F60001010101010101010001000101010001E6
:1008060001010101010101010101010101010101D2
:1008160001010101010101010101010101010101C2
:10082600596F75722077697368206973006D792036
:10083600636F6D6D616E64004C49474854004F4EBE
:10084600004F4646004D4F544F5200464F525741B7
:10085600524400524556455253450053544F50009A
:1008660043616C63756C6174696E670054656D7085
:100876007261747572652E2E2E0054656D707261EC
:0808860074757265203D00004D
:00000001FF
